:0E0000000C942A000C9400000C9400000C9448
:10000E0000000C9400000C9400000C9400000C9462
:10001E0000000C9400000C9400000C9400000C9452
:10002E0000000C9400000C9400000C9400000C9442
:10003E0000000C9400000C9400000C9400000C9432
:10004E0000000C940000F894EE27ECBBF1E0FBBF2F
:10005E00EBBFE5BF8DE0A2E0BB27ED938A95E9F7F4
:10006E0080E094E0A0E6ED930197E9F7EFE5EDBFB0
:10007E00E4E0EEBFC0E6D1E00C944500EFEFEABB42
:10008E00D898D998DA9ADB9ADC98DD98A0E6BAEE81
:10009E000E947D00D898D99ADA98DB9ADC9816D00F
:1000AE00DB9ADC98DD98A0EDB7E019D0DC98DD9AEC
:1000BE00A0E6BAEE14D0DC9A09D0DB98DC98DD9A73
:1000CE00A0EDB7E00E947D00DBCFFFCFDD98A0E171
:1000DE00B7E20E947D00D89AD998DA9808950E94C6
:1000EE007D00D89AD998DA98DB980895109639F051
:1000FE00A89580ED97E00197F1F71197C9F708954C
:00000001FF
