:0E0000000C9445000C9400000C9400000C942D
:10000E0000000C9400000C9400000C9400000C9462
:10001E0000000C9400000C9400000C9400000C9452
:10002E0000000C9400000C9400000C9400000C9442
:10003E0000000C9400000C9400000C9400000C9432
:10004E0000000C9400000000008000808040804082
:10005E00402040202010201010081008080408042A
:10006E00040204020201020101000100000001006D
:10007E0000000000060004007C000000F894EE274B
:10008E00ECBBF1E0FBBFEBBFE5BF8DE0A2E0BB2711
:10009E00ED938A95E9F780E098E0A0E6ED9301975D
:1000AE00E9F7E2E8F0E085919591009761F0A5916E
:1000BE00B59105901590BF01F00105900D92019735
:1000CE00E1F7FB01F0CFEFE5EDBFE8E0EEBFC0E6F4
:1000DE00D2E00C947200EFEFEABBE7BB6624772404
:1000EE00EAE0F0E06E167F066CF5E4E0F0E0E6156F
:1000FE00F70519F4E5E0F0E002C0E1E0F0E02F01D1
:10010E0088249924F201A9E1B0E00E94DC008E1649
:10011E009F06A4F419D020D017D03196049008BAB7
:10012E00EFEE22D03296049008BAEFED1DD0339642
:10013E0013D0F40131964F013197E4CFF30131968C
:10014E003F01CECFCBCFFFCFF301A4E5B0E00E94AD
:10015E00CF00EA0FFB1F0895049008BAE7EEEBBB41
:10016E00AAE0B0E00C94C100EBBBAAE0B0E00E94A4
:10017E00C100EACF109639F0A89580ED97E001976F
:10018E00F1F71197C9F70895F195E195F0400895AB
:10019E00EE0FFF1FEE0FFF1F0895FA9FF02DEB9F3E
:1001AE00F00DEA9FE02DF10D089504D0F6DF0EF468
:1001BE00EBDF0895E894F7FF02C0E6DF6894B7FF1F
:1001CE0006C0A095B095119600F8039400FA089514
:00000001FF
