:080000000C9433000C94000085
:100008000C9400000C9400000C9400000C94000068
:100018000C9400000C9400000C9400000C94000058
:100028000C9400000C9400000C9400000C946300E5
:100038000C9400000C9400000C9400000C94000038
:100048000C9400000C9400000C9400001027E803A6
:1000580064000A0001000010000110000100F8947B
:10006800EE27ECBBF1E0FBBFEBBFE5BF8DE0A2E004
:10007800BB27ED938A95E9F780E098E0A0E6ED9339
:100088000197E9F7EFE5EDBFE8E0EEBFC0E6D2E0A3
:100098000C944E007894E0E0EBB9ECE9EAB9E6E8B4
:1000A800E0BDE0E0E0BDE5E2E9B9EFEFE7BBA0E0E5
:1000B8000E948C00AFEF0E948C00F9CFFFCF0A920C
:1000C8001A92FA926A937A938A939A93AA93BA9312
:1000D800EA93FA93EFB7EA9310D05E2E58BAE991F3
:1000E800EFBFF991E991B991A99199918991799184
:1000F8006991F9901990099018955F9BFECFECB122
:100108000895AA935D9BFECFE881ECB921960895E6
:100118000E948500A8EEB3E00C949200109639F086
:10012800A89580ED97E00197F1F71197C9F7089521
:00000001FF
