:0E0000000C9432000C9400000C9400000C9440
:10000E0000000C9400000C9400000C9400000C9462
:10001E0000000C9400000C9400000C9400000C9452
:10002E0000000C9400000C9400000C9400000C9442
:10003E0000000C9400000C9400000C9400000C9432
:10004E0000000C940000BF065B4F66EDFD07FFEF4E
:10005E00F7FCB95CF9F1F894EE27ECBBF1E0FBBFCD
:10006E00EBBFE5BF8DE0A2E0BB27ED938A95E9F7E4
:10007E0080E094E0A0E6ED930197E9F7EFE5EDBFA0
:10008E00E4E0EEBFC0E6D1E00C944D00EFEFE4BB30
:10009E00E1BBE0E0E7BBEABBA0E0C899A1E0E1E08C
:1000AE00EA9F602DA0E0C999A1E0E2E0EA9FF0018D
:1000BE006E0FA0E0CA99A1E0E4E0EA9FF0016E0F96
:1000CE00A0E0CB99A1E0E8E0EA9FF0016E0FA0E07E
:1000DE00CC99A1E0E0E1EA9FF0016E0FA0E0CD998E
:1000EE00A1E0E0E2EA9FF0016E0FA0E0CE99A1E060
:1000FE00E0E4EA9FF0016E0FA0E0CF99A1E0E0E806
:10010E00EA9FF001E60FFF27662777278AD0E0E007
:10011E00B099E1E0FE2FE0E0DF01E0E0B199E1E02F
:10012E00F0E0EE0FFF1F86D0E0E0B299E1E0F0E0E4
:10013E000E945E017FD0E0E0B399E1E0F0E00E9422
:10014E005C0178D0E0E0B499E1E0F0E00E945A0161
:10015E00FE2FE0E0EA0FFB1FBF01E0E0B599E1E002
:10016E00F0E0A0E0B0E20E946B016E0F7F1FE0E0B6
:10017E00B699E1E0F0E0A0E0B0E40E946B016E0FF2
:10018E007F1FE0E0B799E1E0F0E0A0E0B0E80E9468
:10019E006301E60FF71F53D0662777270E944901A8
:1001AE0040D0E0E1E2BB4BD0EAE0F0E060E070E08E
:1001BE000E949A014DD0E8E0E2BB41D0E4E6F0E0C7
:1001CE0060E070E04DD0EAE0F0E060E070E04DD02D
:1001DE00E4E0E2BB34D0E8EEF3E060E070E040D063
:1001EE00E4E6F0E060E070E040D0E2E0E2BB27D071
:1001FE00E0E1F7E260E070E033D0E8EEF3E060E0DB
:10020E0070E033D0E1E0E2BB1AD0E0EAF6E861E05C
:10021E0070E026D0E0E1F7E260E070E026D03CCF5F
:10022E00FFCFE0936001F0936101609362017093E0
:10023E0063010895FE2FE0E0AE0FBF1F0895A09159
:10024E006001B09161018091620190916301089506
:10025E00EC5AFF4F049005BAAAE0B0E00C943F01AF
:10026E000E949A01DF01CB0108950E949501F0CF03
:10027E00109639F0A89580ED97E00197F1F7119758
:10028E00C9F70895EA0FFB1F681F791F0895F195AE
:10029E00E195F0400895F09560957095E195FF4FCA
:1002AE006F4F7F4F0895EE0FFF1FEE0FFF1FEE0FE4
:1002BE00FF1FEE0FFF1F0895FA9FF02DEB9FF00D1D
:1002CE00EA9FE02DF10D089542D0F6DF0EF4DFDF48
:1002DE0008953F934F935F9300241124442755278D
:1002EE0030E2AA0FBB1F881F991F001C111C441F50
:1002FE00551F0E1A1F0A460B570B28F40E0E1F1E03
:10030E00461F571F01C0A1603A9559F7FD01BC0168
:10031E00D001CA015F914F913F91089526D0D9DF48
:10032E000EF4B9DF0895E89497FF09C0A095B09533
:10033E0080959095AF5FBF4F8F4F9F4F689477FD1D
:10034E00AADFC7DFFD01BC010EF4A5DF0895E89416
:10035E00F7FF02C09CDF6894B7FF06C0A095B0956A
:10036E00119600F8039400FA0895E89477FF02C0FE
:10037E0092DF689497FF0BC00024A095B0958095EE
:10038E0090951196801D901D00F8039400FA089523
:00000001FF
