:080000000C9437000C94000081
:100008000C9400000C9400000C9400000C94000068
:100018000C9400000C9400000C9400000C94000058
:100028000C9400000C9400000C9400000C94000048
:100038000C9400000C9400000C9400000C94000038
:100048000C9400000C9400000C940000BF065B4F59
:1000580066EDFD07FFEFF7FCB95CF9F1000002005F
:10006800040064000000F894EE27ECBBF1E0FBBF4D
:10007800EBBFE5BF8DE0A2E0BB27ED938A95E9F7DA
:1000880080E098E0A0E6ED930197E9F7E6E6F0E076
:1000980085919591009761F0A591B591059015907E
:1000A800BF01F00105900D920197E1F7FB01F0CF38
:1000B800EFE5EDBFE8E0EEBFC0E6D2E00C946400E7
:1000C800EFEFE7BBEABBE0E0E1BB829B02C0442460
:1000D8005524809B2DC00024401450042CF0E7E3E5
:1000E800F0E0E415F5050CF423C0D201EAE0F0E0F5
:1000F8000E94C300EC5AFF4F04900BBAD201EAE009
:10010800F0E00E94C800EC5AFF4F049008BA8199A9
:1001180004C0F20131962F010BC0819B04C000245A
:100128000414050409F404C0F20131972F01319633
:10013800A8EEB3E00E94A200C8CFFFCF109639F016
:10014800A89580ED97E00197F1F71197C9F7089501
:10015800F195E195F04008950024112490E1AA0F4B
:10016800BB1F001C111C0E1A1F0A18F40E0E1F1EAE
:1001780001C0A1609A9599F7FD01D001089512D0A8
:10018800EBDF0EF4E5DF0895E894B7FF04C0A0950F
:10019800B09511966894F7FDDBDFDEDFFD010EF404
:1001A800D7DF0895E894F7FF02C0D2DF6894B7FF5D
:1001B80006C0A095B095119600F8039400FA08952A
:00000001FF
