:080000000C942A000C9400008E
:100008000C9400000C9400000C9400000C94000068
:100018000C9400000C9400000C9400000C94000058
:100028000C9400000C9400000C9400000C94000048
:100038000C9400000C9400000C9400000C94000038
:100048000C9400000C9400000C940000F894EE2727
:10005800ECBBF1E0FBBFEBBFE5BF8DE0A2E0BB2747
:10006800ED938A95E9F780E094E0A0E6ED93019797
:10007800E9F7EFE5EDBFE4E0EEBFC0E6D1E00C94B0
:100088004500EFEFEABBD898D998DA9A15D0D898F6
:10009800D99ADA9811D0D89AD998DA980DD013D07D
:1000A80017D011D0DC9ADD98A8EEB3E00E94720058
:1000B8000AD00ED0E8CFFFCFDB9ADC98DD98A8EE07
:1000C800B3E00C947200D89AD998DA98DB9808951E
:1000D800DC98DD9AA8EEB3E00C947200109639F023
:1000E800A89580ED97E00197F1F71197C9F7089562
:00000001FF
