:080000000C9435000C94000083
:100008000C9400000C9400000C9400000C94000068
:100018000C9400000C9400000C9400000C94000058
:100028000C9400000C9400000C9400000C94000048
:100038000C9400000C9400000C9400000C94000038
:100048000C9400000C9400000C940000BF065B4F59
:1000580066EDFD07FFEF00000000040004005E00ED
:100068000000F894EE27ECBBF1E0FBBFEBBFE5BF67
:100078008DE0A2E0BB27ED938A95E9F780E098E050
:10008800A0E6ED930197E9F7E2E6F0E08591959116
:10009800009761F0A591B59105901590BF01F00109
:1000A80005900D920197E1F7FB01F0CFEFE5EDBF69
:1000B800E8E0EEBFC0E6D2E00C946200EFEFEABBE6
:1000C800E7BBE0E0E4BBE1BBA0E09899A1E0E1E098
:1000D800EA9F602DA0E09999A1E0E2E0EA9FF00193
:1000E8006E0FA0E09A99A1E0E4E0EA9FF0016E0F9C
:1000F800A0E09B99A1E0E8E0EA9FF0016E0FA0E084
:100108009C99A1E0E0E1EA9FF0016E0FA0E09D99C3
:10011800A1E0E0E2EA9FF0016E0FA0E09E99A1E065
:10012800E0E4EA9FF0016E0FA0E09F99A1E0E0E80B
:10013800EA9FF001E60F6E2E7724829B02C04424CA
:100148005524809B25C00024401450042CF0E7E37C
:10015800F0E0E415F5050CF41BC0D201EAE0F0E08C
:100168000E94F300EC5AFF4F04900BBAD201EAE068
:10017800F0E00E94F800EC5AFF4F049008BA819909
:1001880003C0460C571C04C0F301E419F5092F01FC
:10019800A8EEB3E00E94D20097CFFFCF109639F0B7
:1001A800A89580ED97E00197F1F71197C9F70895A1
:1001B800F195E195F04008950024112490E1AA0FEB
:1001C800BB1F001C111C0E1A1F0A18F40E0E1F1E4E
:1001D80001C0A1609A9599F7FD01D001089512D048
:1001E800EBDF0EF4E5DF0895E894B7FF04C0A095AF
:1001F800B09511966894F7FDDBDFDEDFFD010EF4A4
:10020800D7DF0895E894F7FF02C0D2DF6894B7FFFC
:1002180006C0A095B095119600F8039400FA0895C9
:00000001FF
