:100000000C9436000C9400000C9400000C9400003A
:100010000C9400000C9400000C9400000C94000060
:100020000C9400000C9400000C9400000C94000050
:100030000C9400000C9400000C9400000C94000040
:100040000C9400000C9400000C9400000C94000030
:100050000C9400003F065B4F666D7D077F6F777CD9
:10006000395E79711000600254000000F894EE27A8
:10007000ECBBF1E0FBBFEBBFE5BF8DE0A2E0BB272F
:10008000ED938A95E9F780E098E0A0E6ED9301977B
:10009000E9F7E4E6F0E085919591009761F0A5918C
:1000A000B59105901590BF01F00105900D92019753
:1000B000E1F7FB01F0CFEFE5EDBFE8E0EEBFC0E612
:1000C000D2E00C946300E0E0EABBEFEFE7BBE4BBF7
:1000D0002397E9B3EA83AA81B0E0E0E1F0E00E946F
:1000E000AB00E05AFD4FE081E983EA81F0E0AFE048
:1000F000B0E00E94B000E05AFD4FE081E883E98162
:10010000E8BBE881E5BBA4E6B0E00E948A00239644
:10011000DFCFFFCF109639F0A89580ED97E00197DB
:10012000F1F71197C9F70895F195E195F040089519
:100130000024112490E1AA0FBB1F001C111C0E1AF1
:100140001F0A18F40E0E1F1E01C0A1609A9599F7A0
:10015000FD01D00108950ED0EBDF0EF4E5DF089528
:10016000E894F7FF02C0E0DF6894EA23FB230EF473
:10017000DBDF0895E894F7FF02C0D6DF6894B7FF8D
:1001800006C0A095B095119600F8039400FA089562
:00000001FF
