:100000000C9436000C9400000C9400000C9400003A
:100010000C9400000C9400000C9400000C94000060
:100020000C9400000C9400000C9400000C94000050
:100030000C9400000C9400000C9400000C94000040
:100040000C9400000C9400000C9400000C94000030
:100050000C9400003F065B4F666D7D077F6F777CD9
:10006000395E79711000600254000000F894EE27A8
:10007000ECBBF1E0FBBFEBBFE5BF8DE0A2E0BB272F
:10008000ED938A95E9F780E098E0A0E6ED9301977B
:10009000E9F7E4E6F0E085919591009761F0A5918C
:1000A000B59105901590BF01F00105900D92019753
:1000B000E1F7FB01F0CFEFE5EDBFE8E0EEBFC0E612
:1000C000D2E00C946300E0E0EABBEFEFE7BBE4BBF7
:1000D0002397E9B3EA83F0E00E948F00E05AFD4FD6
:1000E000E081E983EA81F0E0EF70F070E05AFD4FC3
:1000F000E081E883E981E8BBE881E5BBA4E6B0E004
:100100000E9485002396E4CFFFCF109639F0A89582
:1001100080ED97E00197F1F71197C9F70895F595EC
:10012000E795F595E795F595E795F595E7950895A4
:00000001FF
