:040000000C9440001C
:100004000C9400000C9400000C9400000C9400006C
:100014000C9400000C9400000C9400000C9400005C
:100024000C9400000C9400000C9400000C9400004C
:100034000C9400000C9400000C9400000C9400003C
:100044000C9400000C9400000C9400000C9400002C
:100054001027E80364000A000100001000011000EA
:1000640001000000000000002564000080C00600BC
:10007400040066000200640270000000F894EE2799
:10008400ECBBF1E0FBBFEBBFE5BF8DE0A2E0BB271B
:10009400ED938A95E9F780E098E0A0E6ED93019767
:1000A400E9F7E2E7F0E085919591009761F0A59179
:1000B400B59105901590BF01F00105900D9201973F
:1000C400E1F7FB01F0CFEFE5EDBFE8E0EEBFC0E6FE
:1000D400D2E00C946D00EFEFE4BBE0E0EABBA0E1FA
:1000E4000E942F030E94E00266247724E2E0F0E0FD
:1000F4006E167F060CF068C0EFE0F0E02F010024DC
:10010400401450040CF45CC0A0E0C899A1E0E1E004
:10011400EA9F602DA0E0C999A1E0E2E0EA9FF00126
:100124006E0FA0E0CA99A1E0E4E0EA9FF0016E0F2F
:10013400A0E0CB99A1E0E8E0EA9FF0016E0FA0E017
:10014400CC99A1E0E0E1EA9FF0016E0FA0E0CD9927
:10015400A1E0E0E2EA9FF0016E0FA0E0CE99A1E0F9
:10016400E0E4EA9FF0016E0FA0E0CF99A1E0E0E89F
:10017400EA9FF001E60F8E2E9924E0E6F2E0FA936E
:10018400EA93ECE6F0E0FA93EA93F4010E94C203E6
:100194000E94CF0384E00E945C0228960E94E00241
:1001A4004A92A62D0E94D002A0E6B2E00E940D035E
:1001B400A4E6B0E00E94B003F20131972F019FCF73
:1001C400F30131963F0192CF8FCFFFCFBA93AA9319
:1001D4001A930A93AA81BB8112960E94C70330978F
:1001E40059F1AA81BB8114960E94C7038F013097ED
:1001F40061F00230E0E01E0798F0F80131978F01BA
:10020400AA81BB811496ED93FC93AA81BB811296BB
:10021400ED91FD913196FE93EE933197AC81A083DD
:10022400AA81BB810E94C703FF232AF0ED91FD91AF
:100234003196FE93EE9306C0AA81BB81EFEFFFEFE8
:10024400ED93FC931981088125960895BA93AA9396
:1002540026970E94D40310E0AC85BD85E0E0F0E071
:10026400ED93FC93EA89FB893196EA8BFB8B3197FA
:10027400E4912E2FE03009F415C1E12FE03039F478
:10028400253211F411E002C00E947B030AC1E1305F
:10029400A9F4253219F40E947B0302C112E040E064
:1002A40000E02D3211F401E0FCC02B3211F44BE2DA
:1002B400F8C0203211F440E2F4C002C0E23039F454
:1002C40050E013E0203311F40068EBC003C0E330C6
:1002D40009F0E7C0203310F02A3308F007C0AAE081
:1002E4005A9F502DE22FE0535E0FDBC0E22FE3361E
:1002F40049F40E948203E889F989A481AA930E949F
:100304008803CEC0E33741F40E9482030E948E0327
:100314000E9462031E2F0AC0E03761F40E94820328
:100324000E948E030E946E031E2F086002600F77E6
:1003340030E034C0E43611F0E93611F4046002C050
:10034400E53731F4E4E5F0E0EE83FF8315E00CC01B
:10035400E83511F4086003C0E83709F0A1C0EEE500
:10036400F0E0EE83FF8314E002FF14C00E948203D6
:100374000E949803AB85AA233AF4EA85FB850E9480
:10038400BE03EA87FB874DE2403011F01F5F01C0D6
:100394000B7F04C00E9482030E94980300FD11C0D9
:1003A400151778F407FF08C002FF04C00B7F242F41
:1003B400115001C020E301C020E20E947B03515090
:1003C400EFCF312F01FF17C03030A1F003FF06C07B
:1003D400EE81FF812591EE83FF8305C0AE81BF814D
:1003E4002D91AE83BF830E947B03503009F051509E
:1003F4003150EACF4BC020E3EE81FF810E94CB0352
:10040400E887F987EE81FF813296EE83FF83E885E2
:10041400F985AA85BB85AE17BF0750F02F5FA88565
:10042400B985EA85FB85EA1BFB0BEA87FB87EFCFDF
:100434002A3328F003FF02C0295F01C0295D04FDAF
:100444001AC0213320F4A885B985119709F409C08D
:10045400531710F000FF01C013C020E207FF0BC0C8
:1004640020E3006102FF07C00B7F4A930E948803C8
:10047400503009F051500E947B03503009F0515024
:100484003150A885B985129708F0B5CF00FF08C090
:10049400503031F05150E0E2EA930E948803F8CFE3
:1004A40010E0E0CEAC85BD850E94C7030E94DB034B
:1004B40064960895FF92F82E26970E94D6030E9410
:1004C400A003309719F4EFEFFFEF23C0DE01169677
:1004D4000E94BA038D010E94A003EE83FF83E0E033
:1004E400E887E987DE011A960E94BA030E94C703CF
:1004F400FA93EA931A930A93E8EEF0E0FA93EA93F4
:10050400DE011A96A3DE9F01AE81BF81E0E0EC9389
:10051400F9010E94DD032A96FF900895FFE0FA9501
:10052400F1F70895A4B3AF70A4BBA99AA898F6DF15
:10053400AA9AF4DFA3B3AA98F1DFAA9AEFDFAA98E4
:10054400A7FDF5CF0895A07FAB2BA5BBAA9A0E9467
:100554009002AA980E9490020895AA93A998A4B31D
:10056400A76FA4BBB5B3BF70A881EDDFA881A29526
:10057400EADFA99A0C946003AA9A0E949002E3B35A
:10058400AA980E949002E07F08950E949002F4DFEE
:10059400AE2FF2DFA998E295EA2B0895AA930E9460
:1005A4009402E881F0E0EC59FD4FE081A981AE0F9F
:1005B4000E94AF02B980A880229608950E949402F6
:1005C400A2E00E94AF020E949402ACE00E94AF023B
:1005D4000E949402A1E00E94AF02E0E0AE2EBE2E83
:1005E4000895AA93EF93FF93A8816894AA3019F011
:1005F400E894BD1430F0A394E0E0EA93AA2DCEDF92
:1006040036F0B3948FDFA89AA8810E94AF02FF91BD
:10061400EF910C946003BA93AA931A93A981BA81B7
:10062400ED91A983BA831E2FE03019F0A12FD9DFF1
:10063400F5CF188123960895AA27BB271197F1F7C0
:100644000895AA93A998A4B3A76FA4BBB5B3BF7028
:10065400A8810E94A502A99A31C0AA93AA98A89831
:10066400D880E881E058E0936602E881E054E093A2
:1006740067020E94A7030E94A7030E94A703DCDF6E
:10068400A0E2DFDFD9DFA8E20E94AC03A4E00E946D
:10069400AC03A5E80E94AC03A4B3AF70A4BBA99AB1
:1006A4000E94C702E53011F0E0E008C00E94940205
:1006B400A6E00E94AF020E94E002E1E021960895C4
:1006C400BA93AA93A991B991EE27FF276D91662356
:1006D40011F03196FBCF0895BA93AA93AA27BB27AA
:1006E400E991F9910590002011F01196FBCFFD01DD
:1006F40008952A93AD85BE85EF85F88909950895F7
:10070400E889F9893497E88BF98B0895AD85BE851E
:10071400EF85F88909950895A889B98914960E94E6
:10072400C703EE83FF83AE81BF810895A889B98989
:1007340014960E94C703EA87FB870895DE011C967E
:100744000E94BA030E94C70308950E941E03A0E3F7
:100754000C9423030E94AF020C941E03109639F0EC
:10076400A89580ED97E00197F1F71197C9F70895DF
:100774000024AF0DB01D0895F195E195F040089562
:100784006F2F660F660B762F0895ED91FC911197EC
:1007940008950590F491E02D08957A936A93FA935D
:1007A400EA9308955A934A933A932A931A930A938D
:1007B40008955D814C813B812A81198108810895C6
:00000001FF
