:060000000C9433000C9487
:1000060000000C9400000C9400000C9400000C946A
:1000160000000C9400000C9400000C9400000C945A
:1000260000000C9400000C9400000C9400000C944A
:1000360000000C9400000C9400000C9400000C943A
:1000460000000C9400000C9400000C9400003F0685
:100056005B4F666D7D077F6F0A00600154000000EC
:10006600F894EE27ECBBF1E0FBBFEBBFE5BF8DE0FC
:10007600A2E0BB27ED938A95E9F780E094E0A0E63D
:10008600ED930197E9F7EEE5F0E0859195910097FC
:1000960061F0A591B59105901590BF01F00105900D
:1000A6000D920197E1F7FB01F0CFEFE5EDBFE4E03C
:1000B600EEBFC0E6D1E00C949200AA93E881E0304E
:1000C60039F4E981F0E0E05AFE4FE081E5BB06C075
:1000D600E981F0E0E05AFE4FE081E2BBA2E3B0E046
:1000E6000E94D10022960895AA931A930A93AA8190
:1000F600B0E0EAE0F0E00E94F2001E2FAA81BB27E2
:10010600EAE0F0E00E94F7000E2F0A93A0E0D5DFA8
:100116001A93A1E0D2DF19810881239608951CE382
:100126000BE0EFEFE4BBE1BBEABBA12FDDDF115033
:10013600A4E6B0E00E94D1000B3031F4D898D998EB
:10014600DA9ADB9ADC98DD98023331F4D898D99A9A
:10015600DA98DB9ADC98DD980A3031F4D89AD99887
:10016600DA98DB98DC9ADD980C3331F4D89AD99872
:10017600DA98DB98DC98DD9A103071F4102F0B308A
:1001860011F402E309C0023311F40AE005C00A3093
:1001960011F40CE301C00BE0C8CFFFCF109639F085
:1001A600A89580ED97E00197F1F71197C9F70895A3
:1001B600F195E195F04008950024112490E1AA0FED
:1001C600BB1F001C111C0E1A1F0A18F40E0E1F1E50
:1001D60001C0A1609A9599F7FD01D001089512D04A
:1001E600EBDF0EF4E5DF0895E894B7FF04C0A095B1
:1001F600B09511966894F7FDDBDFDEDFFD010EF4A6
:10020600D7DF0895E894F7FF02C0D2DF6894B7FFFE
:1002160006C0A095B095119600F8039400FA0895CB
:00000001FF
