:0C0000000C943A000C9400000C940000DA
:10000C000C9400000C9400000C9400000C94000064
:10001C000C9400000C9400000C9400000C94000054
:10002C000C9400000C9400000C9400000C94000044
:10003C000C9400000C9400000C9400000C94000034
:10004C000C9400000C9400001027E80364000A00D4
:10005C00010000100001100001002573000080C099
:10006C00020070026A000000F894EE27ECBBF1E08D
:10007C00FBBFEBBFE5BF8DE0A2E0BB27ED938A95FC
:10008C00E9F780E098E0A0E6ED930197E9F7ECE65C
:10009C00F0E085919591009761F0A591B59105904F
:1000AC001590BF01F00105900D920197E1F7FB014E
:1000BC00F0CFEFE5EDBFE8E0EEBFC0E6D2E00C9488
:1000CC006700A0E10E9434010E94E500E0E0EBB97A
:1000DC00E8E1EAB9E6E8E0BDE0E0E0BDE3E3E9B978
:1000EC00E6E6F0E0FA93EA93E0E6F2E0662777279B
:1000FC000E944B0384E00E94C30226960E94E500F6
:10010C00E0E0EA93A0E00E94D500A0E6B2E00E94F5
:10011C001201AAE0B0E00E942D03E2CFFFCFFFE076
:10012C00FA95F1F70895A7B3AF70A7BBC19AC09821
:10013C00F6DFC29AF4DFA6B3C298F1DFC29AEFDF02
:10014C00C298A7FDF5CF0895A07FAB2BA8BBC29A90
:10015C000E949500C2980E9495000895AA93C19898
:10016C00A7B3A76FA7BBB8B3BF70A881EDDFA881F9
:10017C00A295EADFC19A0C946501C29A0E9495007F
:10018C00E6B3C2980E949500E07F08950E94950006
:10019C00F4DFAE2FF2DFC198E295EA2B0895AA9313
:1001AC000E949900E881F0E0E059FD4FE081A981BF
:1001BC00AE0F0E94B40059804880229608950E9488
:1001CC009900A2E00E94B4000E949900ACE00E9449
:1001DC00B4000E949900A1E00E94B400E0E04E2E11
:1001EC005E2E0895AA93EF93FF93A8816894AA308A
:1001FC0019F0E894571430F04394E0E0EA93A42DFE
:10020C00CEDF36F053948FDFC09AA8810E94B400E1
:10021C00FF91EF910C946501BA93AA931A93A9815B
:10022C00BA81ED91A983BA831E2FE03019F0A12F6A
:10023C00D9DFF5CF188123960895AA27BB271197EC
:10024C00F1F70895AA93C198A7B3A76FA7BBB8B34A
:10025C00BF70A8810E94AA00C19A31C0AA93C2980B
:10026C00C0987880E881E058E0937202E881E0540D
:10027C00E09373020E9409030E9409030E94090380
:10028C00DCDFA0E2DFDFD9DFA8E20E940E03A4E0EE
:10029C000E940E03A5E80E940E03A7B3AF70A7BB84
:1002AC00C19A0E94CC00E53011F0E0E008C00E9439
:1002BC009900A6E00E94B4000E94E500E1E02196BE
:1002CC0008955F9BFECFECB10895BA93AA931A934D
:1002DC00A981BA81E0E0EC93AB81BC81EC911E2F3B
:1002EC00E03019F0E0E0EC9302C0EBDF1E2FE12FC1
:1002FC00188125960895FF92BA93AA9324970E9489
:10030C005003E0E0F0E0E887F9874E2FE889F9899F
:10031C003196E88BF98B3197E4913E2FE03009F45C
:10032C0025C10E941203C1F0EDB7FEB7FA93EA9310
:10033C004F930E9417034F913E2FE03019F00E940B
:10034C00120309F407C00E941D031CF4EFEFFFEF2A
:10035C000FC1EACF432F09C1353209F0EEC050E08E
:10036C00E889F9893591E88BF98B303310F03A3301
:10037C0008F007C0AAE05A9F502DE32FE0535E0F00
:10038C00EFCF303009F4F2C0EDB7FEB7FA93EA9331
:10039C004F930E9417034F912E2FAE2F0E94EF0206
:1003AC00E03039F00E941D031CF4EFEFFFEFE0C0CA
:1003BC00EBCF203009F4D1C0422F503009F45FEF5D
:1003CC00E32FE33699F40E942203EDB7FEB7FA93BC
:1003DC00EA934F930E9417034F91D801EC930E941C
:1003EC001D031CF4EFEFFFEFC3C0A1C0E33741F5D1
:1003FC000E942203E52F5150E030F1F0EDB7FEB72B
:10040C00FA93EA934F930E9417034F913E2FE030DB
:10041C0019F00E94120339F00E941D031CF4EFEF37
:10042C00FFEFA6C009C01F930F930F5F1F4FE32F61
:10043C00AF91BF91EC93DECFD801E0E0EC9377C0A5
:10044C006894F1F8E894F2F8E32FE43611F0E93609
:10045C0019F4E894F1F802C0E53711F42AE008C069
:10046C00E83711F420E104C0E53209F466C07EC01F
:10047C00E0E0EE83EF836894F0F8E52F5150E03024
:10048C0009F446C0EDB7FEB7FA93EA934F930E9476
:10049C0017034F913E2FE13238F40E941D031CF4D8
:1004AC00EFEFFFEF65C017C0F1FC08C06894F1F8DE
:1004BC003D3211F4F2F8E1CF3B32F9F2203131F454
:1004CC00A32F0E94FA02E03031F009C0A32F0E9442
:1004DC00E602E03021F4F0FC49C0432F19C031365C
:1004EC0010F0375505C0313410F0375301C030537C
:1004FC00E22FAE81BF81F0E00E943F03DF01E32FCA
:10050C00F0E0EA0FFB1FEE83FF83E894F0F8B5CF21
:10051C000E942203F2FE06C0EE81FF810E943B0383
:10052C00EE83FF83EE81FF81D801ED93FC93E88588
:10053C00F9853196E887F98718C0EDB7FEB7FA93BD
:10054C00EA934F930E9417034F91E31771F00E94A7
:10055C001D031CF4EFEFFFEF0BC0E885F985309716
:10056C0019F4EFEFFFEF04C001C0D0CEE885F98598
:10057C000E9457036296FF900895FF92F82E2397DE
:10058C001A930A93DE0111960E9437038D01E0E065
:10059C00EB83EC83DE0115960E9437030E94470320
:1005AC00FA93EA931A930A93EBE6F1E0FA93EA933F
:1005BC00DE011896A0DE198108812596FF9008951A
:1005CC00AA93E1E0F991F03310F0FA3308F0EE273A
:1005DC000895AA93E1E0F991F03229F0F93010F086
:1005EC00FE3008F0EE270895AA93E1E0F991F0535C
:1005FC0040F0FA3038F0FF75F750FA3010F0F03167
:10060C0008F0EE2708950E942301A0E30C94280122
:10061C000E94B4000C942301A32F0E94EF02E0303F
:10062C000895AC85BD85EE85FF8509950895AA854D
:10063C00BB85AC91A0300895EE85FF853497EE878D
:10064C00FF87AE85BF8514960D911C910895109669
:10065C0039F0A89580ED97E00197F1F71197C9F75C
:10066C0008950024AF0DB01D0895F195E195F0406B
:10067C000895FA9FF02DEB9FF00DEA9FE02DF10D00
:10068C000895ED91FC91119708957A936A93FA93DA
:10069C00EA9308955A934A933A932A931A930A9396
:1006AC0008955D814C813B812A81198108810895CF
:00000001FF
