:0E0000000C9433000C9400000C9400000C943F
:10000E0000000C9400000C9400000C9400000C9462
:10001E0000000C9400000C9400000C9400000C9452
:10002E0000000C9400000C9400000C9400000C9442
:10003E0000000C9400000C9400000C9400000C9432
:10004E0000000C94000000020201020101030000F6
:10005E00020004005C000000F894EE27ECBBF1E017
:10006E00FBBFEBBFE5BF8DE0A2E0BB27ED938A950A
:10007E00E9F780E098E0A0E6ED930197E9F7EEE569
:10008E00F0E085919591009761F0A591B59105905D
:10009E001590BF01F00105900D920197E1F7FB015C
:1000AE00F0CFEFE5EDBFE8E0EEBFC0E6D2E00C9496
:1000BE006000E0E0EABBEFEFE7BBA0E0C899A1E08B
:1000CE00E1E0EA9F602DA0E0C999A1E0E2E0EA9F9D
:1000DE00F0016E0FA0E0CA99A1E0E4E0EA9FF00102
:1000EE00E60F4E2E5524F201EC5AFF4F049008BA3B
:1000FE00AAE0B0E00E948500E0CFFFCF109639F065
:10010E00A89580ED97E00197F1F71197C9F708953B
:00000001FF
